{
  "contractName": "CiviaERC20Check",
  "abi": [
    {
      "inputs": [
        {
          "internalType": "address",
          "name": "admin",
          "type": "address"
        }
      ],
      "stateMutability": "nonpayable",
      "type": "constructor"
    },
    {
      "inputs": [
        {
          "internalType": "address",
          "name": "",
          "type": "address"
        }
      ],
      "name": "erc20Info",
      "outputs": [
        {
          "internalType": "uint256",
          "name": "id",
          "type": "uint256"
        },
        {
          "internalType": "address",
          "name": "admin",
          "type": "address"
        }
      ],
      "stateMutability": "view",
      "type": "function",
      "constant": true
    },
    {
      "inputs": [
        {
          "internalType": "uint256",
          "name": "",
          "type": "uint256"
        }
      ],
      "name": "tokenIdAddrMaps",
      "outputs": [
        {
          "internalType": "address",
          "name": "",
          "type": "address"
        }
      ],
      "stateMutability": "view",
      "type": "function",
      "constant": true
    },
    {
      "inputs": [
        {
          "internalType": "address",
          "name": "",
          "type": "address"
        },
        {
          "internalType": "uint256",
          "name": "",
          "type": "uint256"
        }
      ],
      "name": "userRegisteTokens",
      "outputs": [
        {
          "internalType": "uint256",
          "name": "",
          "type": "uint256"
        }
      ],
      "stateMutability": "view",
      "type": "function",
      "constant": true
    },
    {
      "inputs": [
        {
          "internalType": "address",
          "name": "addr",
          "type": "address"
        }
      ],
      "name": "registERC20",
      "outputs": [],
      "stateMutability": "nonpayable",
      "type": "function"
    },
    {
      "inputs": [
        {
          "internalType": "address",
          "name": "account",
          "type": "address"
        },
        {
          "internalType": "address",
          "name": "tokenAddr",
          "type": "address"
        }
      ],
      "name": "getOwnedTokenCurrentId",
      "outputs": [
        {
          "internalType": "uint256",
          "name": "",
          "type": "uint256"
        }
      ],
      "stateMutability": "view",
      "type": "function",
      "constant": true
    },
    {
      "inputs": [
        {
          "internalType": "address",
          "name": "account",
          "type": "address"
        },
        {
          "internalType": "address[]",
          "name": "tokenAddrs",
          "type": "address[]"
        }
      ],
      "name": "getOwnedTokensCurrentIds",
      "outputs": [
        {
          "internalType": "uint256[]",
          "name": "",
          "type": "uint256[]"
        }
      ],
      "stateMutability": "view",
      "type": "function",
      "constant": true
    },
    {
      "inputs": [
        {
          "internalType": "address",
          "name": "tokenAddr",
          "type": "address"
        },
        {
          "internalType": "address",
          "name": "account",
          "type": "address"
        },
        {
          "internalType": "uint256[]",
          "name": "beginIds",
          "type": "uint256[]"
        },
        {
          "internalType": "uint256[]",
          "name": "endIds",
          "type": "uint256[]"
        },
        {
          "internalType": "uint256[]",
          "name": "amounts",
          "type": "uint256[]"
        },
        {
          "internalType": "uint8[]",
          "name": "v1",
          "type": "uint8[]"
        },
        {
          "internalType": "bytes32[]",
          "name": "r1",
          "type": "bytes32[]"
        },
        {
          "internalType": "bytes32[]",
          "name": "s1",
          "type": "bytes32[]"
        },
        {
          "internalType": "uint8[]",
          "name": "v2",
          "type": "uint8[]"
        },
        {
          "internalType": "bytes32[]",
          "name": "r2",
          "type": "bytes32[]"
        },
        {
          "internalType": "bytes32[]",
          "name": "s2",
          "type": "bytes32[]"
        }
      ],
      "name": "batchMint",
      "outputs": [],
      "stateMutability": "nonpayable",
      "type": "function"
    },
    {
      "inputs": [],
      "name": "getHandledCount",
      "outputs": [
        {
          "internalType": "uint256",
          "name": "",
          "type": "uint256"
        }
      ],
      "stateMutability": "view",
      "type": "function",
      "constant": true
    },
    {
      "inputs": [
        {
          "internalType": "address",
          "name": "addr",
          "type": "address"
        }
      ],
      "name": "getTokenInfo",
      "outputs": [
        {
          "internalType": "uint256",
          "name": "",
          "type": "uint256"
        },
        {
          "internalType": "address",
          "name": "",
          "type": "address"
        }
      ],
      "stateMutability": "view",
      "type": "function",
      "constant": true
    },
    {
      "inputs": [
        {
          "internalType": "uint256[]",
          "name": "ids",
          "type": "uint256[]"
        }
      ],
      "name": "getERC20TokenAddrByIds",
      "outputs": [
        {
          "internalType": "address[]",
          "name": "",
          "type": "address[]"
        }
      ],
      "stateMutability": "view",
      "type": "function",
      "constant": true
    },
    {
      "inputs": [
        {
          "internalType": "address",
          "name": "account",
          "type": "address"
        }
      ],
      "name": "getUserRegistERC20Ids",
      "outputs": [
        {
          "internalType": "uint256[]",
          "name": "",
          "type": "uint256[]"
        }
      ],
      "stateMutability": "view",
      "type": "function",
      "constant": true
    }
  ],
  "bytecode": "0x608060405234801561001057600080fd5b5060405161129238038061129283398101604081905261002f9161006e565b600580546001600160a01b0319166001600160a01b03831617905561005f6000610065602090811b6109ef17901c565b5061009e565b80546001019055565b60006020828403121561008057600080fd5b81516001600160a01b038116811461009757600080fd5b9392505050565b6111e5806100ad6000396000f3fe608060405234801561001057600080fd5b50600436106100995760003560e01c80631f69565f1461009e57806326370d05146100d35780632c442b39146100f45780634cdcfde61461010957806366d2a22c1461011c5780636e564e9b1461014c578063890dfe011461015f578063b9a453291461017f578063c21bc9d114610187578063c6b4bdf0146101c8578063fa104992146101db575b600080fd5b6100b16100ac366004610d31565b6101fb565b604080519283526001600160a01b039091166020830152015b60405180910390f35b6100e66100e1366004610d53565b610283565b6040519081526020016100ca565b610107610102366004610d86565b610313565b005b6100e6610117366004610fcc565b6106e5565b6100b161012a366004610d31565b600160208190526000918252604090912080549101546001600160a01b031682565b61010761015a366004610d31565b610716565b61017261016d366004610d31565b6107e4565b6040516100ca9190611098565b6100e6610850565b6101b0610195366004611032565b6003602052600090815260409020546001600160a01b031681565b6040516001600160a01b0390911681526020016100ca565b6101726101d6366004610f1b565b61086c565b6101ee6101e9366004610ff6565b610919565b6040516100ca919061104b565b6001600160a01b03811660009081526001602052604081205481906102595760405162461bcd60e51b815260206004820152600f60248201526e151bdad95b881b9bdd08195e1a5cdd608a1b60448201526064015b60405180910390fd5b50506001600160a01b03908116600090815260016020819052604090912080549101549092911690565b6001600160a01b0381166000908152600160205260408120546102dd5760405162461bcd60e51b81526020600482015260126024820152711d1bdad95b881b9bdd081c9959da5cdd195960721b6044820152606401610250565b506001600160a01b0391821660009081526004602090815260408083209390941682526001815283822054825291909152205490565b85518751148015610325575088518751145b8015610332575087518751145b801561033f575084518751145b801561034c575083518751145b8015610359575082518751145b8015610366575081518751145b8015610373575080518751145b6103af5760405162461bcd60e51b815260206004820152600d60248201526c125b9d985b1a59081a5b9c1d5d609a1b6044820152606401610250565b60006103bb8b8d610283565b90506103c8816001611123565b8a6000815181106103db576103db611183565b6020026020010151146104305760405162461bcd60e51b815260206004820152601d60248201527f62617463684d696e743a207374617274206964206e6f74206d617463680000006044820152606401610250565b6000805b89518110156106a357600160008f6001600160a01b03166001600160a01b0316815260200190815260200160002060010160009054906101000a90046001600160a01b03166001600160a01b03166105288f8f8f858151811061049957610499611183565b60200260200101518f86815181106104b3576104b3611183565b60200260200101518f87815181106104cd576104cd611183565b60200260200101518f88815181106104e7576104e7611183565b60200260200101518f898151811061050157610501611183565b60200260200101518f8a8151811061051b5761051b611183565b60200260200101516109f8565b6001600160a01b0316146105785760405162461bcd60e51b815260206004820152601760248201527624b73b30b634b21039b4b3b730ba3ab9329030b236b4b760491b6044820152606401610250565b8c6001600160a01b031661061b8f8f8f858151811061059957610599611183565b60200260200101518f86815181106105b3576105b3611183565b60200260200101518f87815181106105cd576105cd611183565b60200260200101518c88815181106105e7576105e7611183565b60200260200101518c898151811061060157610601611183565b60200260200101518c8a8151811061051b5761051b611183565b6001600160a01b03161461066a5760405162461bcd60e51b815260206004820152601660248201527524b73b30b634b21039b4b3b730ba3ab932903ab9b2b960511b6044820152606401610250565b89818151811061067c5761067c611183565b60200260200101518261068f9190611123565b91508061069b81611152565b915050610434565b506106d68d8d8c60018e516106b8919061113b565b815181106106c8576106c8611183565b602002602001015184610b29565b50505050505050505050505050565b6002602052816000526040600020818154811061070157600080fd5b90600052602060002001600091509150505481565b6001600160a01b038116600090815260016020526040902054156107735760405162461bcd60e51b8152602060048201526014602482015273746f6b656e20616c72656164792065786973747360601b6044820152606401610250565b6000546001600160a01b03821660008181526001602081815260408084208681558084018054336001600160a01b0319918216811790925590865260028452828620805480870182559087528487200197909755548452600390915282208054909416909217909255815401905550565b6001600160a01b03811660009081526002602090815260409182902080548351818402810184019094528084526060939283018282801561084457602002820191906000526020600020905b815481526020019060010190808311610830575b50505050509050919050565b6000600161085d60005490565b610867919061113b565b905090565b6060600082516001600160401b0381111561088957610889611199565b6040519080825280602002602001820160405280156108b2578160200160208202803683370190505b50905060005b8351811015610911576108e4858583815181106108d7576108d7611183565b6020026020010151610283565b8282815181106108f6576108f6611183565b602090810291909101015261090a81611152565b90506108b8565b509392505050565b6060600082516001600160401b0381111561093657610936611199565b60405190808252806020026020018201604052801561095f578160200160208202803683370190505b50905060005b83518110156109e8576003600085838151811061098457610984611183565b6020026020010151815260200190815260200160002060009054906101000a90046001600160a01b03168282815181106109c0576109c0611183565b6001600160a01b03909216602092830291909101909101526109e181611152565b9050610965565b5092915050565b80546001019055565b6001600160a01b03881660009081526001602081815260408084209092015482516001600160601b0319606092831b8116828501528c831b81166034830152918d901b9091166048820152605c81018a9052607c8101899052609c8082018990528351808303909101815260bc8201909352825192909101919091207b0ca2ba3432b932bab69029b4b3b732b21026b2b9b9b0b3b29d05199960211b60dc83015260f882018190529082906101180160408051601f1981840301815282825280516020918201206000845290830180835281905260ff8916918301919091526060820187905260808201869052915060019060a0016020604051602081039080840390855afa158015610b0f573d6000803e3d6000fd5b5050604051601f1901519c9b505050505050505050505050565b6001600160a01b038416600090815260016020526040902054610b8e5760405162461bcd60e51b815260206004820152601d60248201527f6d696e74546f6b656e3a20746f6b656e206e6f742072656769737465640000006044820152606401610250565b6040516340c10f1960e01b81526001600160a01b038481166004830152602482018390528516906340c10f1990604401600060405180830381600087803b158015610bd857600080fd5b505af1158015610bec573d6000803e3d6000fd5b5050506001600160a01b03938416600090815260046020908152604080832097909616825260018152858220548252959095525050912055565b80356001600160a01b0381168114610c3d57600080fd5b919050565b600082601f830112610c5357600080fd5b81356020610c68610c6383611100565b6110d0565b80838252828201915082860187848660051b8901011115610c8857600080fd5b60005b85811015610ca757813584529284019290840190600101610c8b565b5090979650505050505050565b600082601f830112610cc557600080fd5b81356020610cd5610c6383611100565b80838252828201915082860187848660051b8901011115610cf557600080fd5b6000805b86811015610d2357823560ff81168114610d11578283fd5b85529385019391850191600101610cf9565b509198975050505050505050565b600060208284031215610d4357600080fd5b610d4c82610c26565b9392505050565b60008060408385031215610d6657600080fd5b610d6f83610c26565b9150610d7d60208401610c26565b90509250929050565b60008060008060008060008060008060006101608c8e031215610da857600080fd5b610db18c610c26565b9a50610dbf60208d01610c26565b99506001600160401b0360408d0135811015610dda57600080fd5b610dea8e60408f01358f01610c42565b99508060608e01351115610dfd57600080fd5b610e0d8e60608f01358f01610c42565b98508060808e01351115610e2057600080fd5b610e308e60808f01358f01610c42565b97508060a08e01351115610e4357600080fd5b610e538e60a08f01358f01610cb4565b96508060c08e01351115610e6657600080fd5b610e768e60c08f01358f01610c42565b95508060e08e01351115610e8957600080fd5b610e998e60e08f01358f01610c42565b9450806101008e01351115610ead57600080fd5b610ebe8e6101008f01358f01610cb4565b9350806101208e01351115610ed257600080fd5b610ee38e6101208f01358f01610c42565b9250806101408e01351115610ef757600080fd5b50610f098d6101408e01358e01610c42565b90509295989b509295989b9093969950565b60008060408385031215610f2e57600080fd5b610f3783610c26565b91506020838101356001600160401b03811115610f5357600080fd5b8401601f81018613610f6457600080fd5b8035610f72610c6382611100565b80828252848201915084840189868560051b8701011115610f9257600080fd5b600094505b83851015610fbc57610fa881610c26565b835260019490940193918501918501610f97565b5080955050505050509250929050565b60008060408385031215610fdf57600080fd5b610fe883610c26565b946020939093013593505050565b60006020828403121561100857600080fd5b81356001600160401b0381111561101e57600080fd5b61102a84828501610c42565b949350505050565b60006020828403121561104457600080fd5b5035919050565b6020808252825182820181905260009190848201906040850190845b8181101561108c5783516001600160a01b031683529284019291840191600101611067565b50909695505050505050565b6020808252825182820181905260009190848201906040850190845b8181101561108c578351835292840192918401916001016110b4565b604051601f8201601f191681016001600160401b03811182821017156110f8576110f8611199565b604052919050565b60006001600160401b0382111561111957611119611199565b5060051b60200190565b600082198211156111365761113661116d565b500190565b60008282101561114d5761114d61116d565b500390565b60006000198214156111665761116661116d565b5060010190565b634e487b7160e01b600052601160045260246000fd5b634e487b7160e01b600052603260045260246000fd5b634e487b7160e01b600052604160045260246000fdfea26469706673582212202854f1c66071235e89cd366d1560645416f918daa92d02be7cc6aa95f1252b6464736f6c63430008070033",
  "immutableReferences": {},
  "source": "// SPDX-License-Identifier: MIT\r\npragma solidity ^0.8.0;\r\n\r\nimport \"@openzeppelin/contracts/utils/Counters.sol\";\r\n\r\ninterface ERC20Mintable\r\n{\r\n    function mint(address to, uint256 amount) external;\r\n}\r\n\r\ncontract CiviaERC20Check {\r\n    using Counters for Counters.Counter;\r\n\r\n    Counters.Counter private _id;\r\n    struct ContractInfo {\r\n        uint256 id;\r\n        address admin;\r\n    }\r\n    mapping (address => ContractInfo) public erc20Info;\r\n    mapping (address => uint256[]) public userRegisteTokens;\r\n    mapping (uint256 => address) public tokenIdAddrMaps;\r\n\r\n    mapping (address => mapping (uint256 => uint256)) private userOwnMaps;  // account => erc20id => ownId\r\n\r\n    address private _admin;\r\n    constructor(address admin) {\r\n        _admin = admin;\r\n        _id.increment();\r\n    }\r\n\r\n    function registERC20(address addr) external {\r\n        require(erc20Info[addr].id == 0, \"token already exists\");\r\n        \r\n        erc20Info[addr].id = _id.current();\r\n        erc20Info[addr].admin = msg.sender;\r\n\r\n        userRegisteTokens[msg.sender].push(erc20Info[addr].id);\r\n        tokenIdAddrMaps[erc20Info[addr].id] = addr;\r\n\r\n        _id.increment();\r\n    }\r\n\r\n    function getOwnedTokenCurrentId(address account, address tokenAddr) public view returns (uint256) {\r\n        require(erc20Info[tokenAddr].id > 0, \"token not registed\");\r\n        return userOwnMaps[account][erc20Info[tokenAddr].id];\r\n    }\r\n    function getOwnedTokensCurrentIds(address account, address[] memory tokenAddrs) public view returns (uint256[] memory) {\r\n        uint256[] memory ids = new uint256[](tokenAddrs.length);\r\n        for (uint256 i = 0; i < tokenAddrs.length; ++i) {\r\n            ids[i] = getOwnedTokenCurrentId(account, tokenAddrs[i]);\r\n        }\r\n        return ids;\r\n    }\r\n\r\n    function verifySign(address tokenAddr, address account, uint256 beginId, uint256 endId, uint256 amount, uint8 v, bytes32 r, bytes32 s) internal view returns(address) {\r\n        bytes32 messageHash = keccak256(\r\n            abi.encodePacked(\r\n                erc20Info[tokenAddr].admin,\r\n                account,\r\n                tokenAddr,\r\n                beginId,\r\n                endId,\r\n                amount\r\n            )\r\n        );\r\n        bytes32 prefixedHash = keccak256(abi.encodePacked(\"\\x19Ethereum Signed Message:\\n32\", messageHash));\r\n        return ecrecover(prefixedHash, v, r, s);\r\n    }\r\n    function mintToken(address tokenAddr, address account, uint256 endId, uint256 mintAmount) internal {\r\n        require(erc20Info[tokenAddr].id > 0, \"mintToken: token not registed\");\r\n\r\n        ERC20Mintable(tokenAddr).mint(account, mintAmount);\r\n        userOwnMaps[account][erc20Info[tokenAddr].id] = endId;\r\n    }\r\n    function batchMint(address tokenAddr, address account, uint256[] memory beginIds, uint256[] memory endIds, uint256[] memory amounts, uint8[] memory v1, bytes32[] memory r1, bytes32[] memory s1, uint8[] memory v2, bytes32[] memory r2, bytes32[] memory s2) public {\r\n        require(amounts.length == v1.length && amounts.length == beginIds.length && amounts.length == endIds.length && amounts.length == r1.length && amounts.length == s1.length && amounts.length == v2.length && amounts.length == r2.length && amounts.length == s2.length, \"Invalid input\");\r\n\r\n        uint256 currentId = getOwnedTokenCurrentId(account, tokenAddr);\r\n        require(beginIds[0] == (currentId + 1), \"batchMint: start id not match\");\r\n\r\n        uint256 mintAmount = 0;\r\n        for (uint256 i = 0; i < amounts.length; i++) {\r\n            require(verifySign(tokenAddr, account, beginIds[i], endIds[i], amounts[i], v1[i], r1[i], s1[i])==erc20Info[tokenAddr].admin, \"Invalid signature admin\");\r\n            require(verifySign(tokenAddr, account, beginIds[i], endIds[i], amounts[i], v2[i], r2[i], s2[i])==account, \"Invalid signature user\");\r\n            mintAmount += amounts[i];\r\n        }\r\n\r\n        mintToken(tokenAddr, account, endIds[endIds.length-1], mintAmount);\r\n    }\r\n\r\n    // total regist ERC20 counts\r\n    function getHandledCount() public view returns (uint256) {\r\n        return (_id.current() - 1);\r\n    }\r\n    function getTokenInfo(address addr) public view returns (uint256, address) {\r\n        require(erc20Info[addr].id > 0, \"Token not exist\");\r\n        return (erc20Info[addr].id, erc20Info[addr].admin);\r\n    }\r\n    function getERC20TokenAddrByIds(uint256[] memory ids) public view returns (address[] memory) {\r\n        address[] memory tokenAddrs = new address[](ids.length);\r\n        for (uint256 i = 0; i < ids.length; ++i) {\r\n            tokenAddrs[i] = tokenIdAddrMaps[ids[i]];\r\n        }\r\n        return tokenAddrs;\r\n    }\r\n    function getUserRegistERC20Ids(address account) view public returns(uint256[] memory) {\r\n        return userRegisteTokens[account];\r\n    }\r\n    \r\n}",
  "sourcePath": "C:\\dev\\NBWallet\\code\\contracts\\ethernum\\contracts\\CiviaERC20Check.sol",
  "compiler": {
    "name": "solc",
    "version": "0.8.7+commit.e28d00a7.Emscripten.clang"
  },
  "schemaVersion": "3.4.4",
  "updatedAt": "2023-05-17T05:10:03.672Z",
  "networkType": "ethereum",
  "devdoc": {
    "kind": "dev",
    "methods": {},
    "version": 1
  },
  "userdoc": {
    "kind": "user",
    "methods": {},
    "version": 1
  }
}