{
  "contractName": "CiviaERC20Check",
  "abi": [
    {
      "inputs": [
        {
          "internalType": "address",
          "name": "admin",
          "type": "address"
        }
      ],
      "stateMutability": "nonpayable",
      "type": "constructor"
    },
    {
      "inputs": [
        {
          "internalType": "address",
          "name": "",
          "type": "address"
        }
      ],
      "name": "erc20Info",
      "outputs": [
        {
          "internalType": "uint256",
          "name": "id",
          "type": "uint256"
        },
        {
          "internalType": "address",
          "name": "admin",
          "type": "address"
        }
      ],
      "stateMutability": "view",
      "type": "function",
      "constant": true
    },
    {
      "inputs": [
        {
          "internalType": "uint256",
          "name": "",
          "type": "uint256"
        }
      ],
      "name": "tokenIdAddrMaps",
      "outputs": [
        {
          "internalType": "address",
          "name": "",
          "type": "address"
        }
      ],
      "stateMutability": "view",
      "type": "function",
      "constant": true
    },
    {
      "inputs": [
        {
          "internalType": "address",
          "name": "",
          "type": "address"
        },
        {
          "internalType": "uint256",
          "name": "",
          "type": "uint256"
        }
      ],
      "name": "userRegisteTokens",
      "outputs": [
        {
          "internalType": "uint256",
          "name": "",
          "type": "uint256"
        }
      ],
      "stateMutability": "view",
      "type": "function",
      "constant": true
    },
    {
      "inputs": [
        {
          "internalType": "address",
          "name": "addr",
          "type": "address"
        }
      ],
      "name": "registERC20",
      "outputs": [],
      "stateMutability": "nonpayable",
      "type": "function"
    },
    {
      "inputs": [
        {
          "internalType": "address",
          "name": "account",
          "type": "address"
        },
        {
          "internalType": "address",
          "name": "tokenAddr",
          "type": "address"
        }
      ],
      "name": "getOwnedTokenCurrentId",
      "outputs": [
        {
          "internalType": "uint256",
          "name": "",
          "type": "uint256"
        }
      ],
      "stateMutability": "view",
      "type": "function",
      "constant": true
    },
    {
      "inputs": [
        {
          "internalType": "address",
          "name": "account",
          "type": "address"
        },
        {
          "internalType": "address[]",
          "name": "tokenAddrs",
          "type": "address[]"
        }
      ],
      "name": "getOwnedTokensCurrentIds",
      "outputs": [
        {
          "internalType": "uint256[]",
          "name": "",
          "type": "uint256[]"
        }
      ],
      "stateMutability": "view",
      "type": "function",
      "constant": true
    },
    {
      "inputs": [
        {
          "internalType": "address",
          "name": "tokenAddr",
          "type": "address"
        },
        {
          "internalType": "address",
          "name": "account",
          "type": "address"
        },
        {
          "internalType": "uint256[]",
          "name": "beginIds",
          "type": "uint256[]"
        },
        {
          "internalType": "uint256[]",
          "name": "endIds",
          "type": "uint256[]"
        },
        {
          "internalType": "uint256[]",
          "name": "amounts",
          "type": "uint256[]"
        },
        {
          "internalType": "uint8[]",
          "name": "v1",
          "type": "uint8[]"
        },
        {
          "internalType": "bytes32[]",
          "name": "r1",
          "type": "bytes32[]"
        },
        {
          "internalType": "bytes32[]",
          "name": "s1",
          "type": "bytes32[]"
        },
        {
          "internalType": "uint8[]",
          "name": "v2",
          "type": "uint8[]"
        },
        {
          "internalType": "bytes32[]",
          "name": "r2",
          "type": "bytes32[]"
        },
        {
          "internalType": "bytes32[]",
          "name": "s2",
          "type": "bytes32[]"
        }
      ],
      "name": "batchMintOne",
      "outputs": [],
      "stateMutability": "nonpayable",
      "type": "function"
    },
    {
      "inputs": [
        {
          "internalType": "address[]",
          "name": "tokenAddrs",
          "type": "address[]"
        },
        {
          "internalType": "address[]",
          "name": "accounts",
          "type": "address[]"
        },
        {
          "internalType": "uint256[]",
          "name": "beginIds",
          "type": "uint256[]"
        },
        {
          "internalType": "uint256[]",
          "name": "endIds",
          "type": "uint256[]"
        },
        {
          "internalType": "uint256[]",
          "name": "amounts",
          "type": "uint256[]"
        },
        {
          "internalType": "uint8[]",
          "name": "v",
          "type": "uint8[]"
        },
        {
          "internalType": "bytes32[]",
          "name": "r_s",
          "type": "bytes32[]"
        }
      ],
      "name": "batchMint",
      "outputs": [],
      "stateMutability": "nonpayable",
      "type": "function"
    },
    {
      "inputs": [],
      "name": "getHandledCount",
      "outputs": [
        {
          "internalType": "uint256",
          "name": "",
          "type": "uint256"
        }
      ],
      "stateMutability": "view",
      "type": "function",
      "constant": true
    },
    {
      "inputs": [
        {
          "internalType": "address",
          "name": "addr",
          "type": "address"
        }
      ],
      "name": "getTokenInfo",
      "outputs": [
        {
          "internalType": "uint256",
          "name": "",
          "type": "uint256"
        },
        {
          "internalType": "address",
          "name": "",
          "type": "address"
        }
      ],
      "stateMutability": "view",
      "type": "function",
      "constant": true
    },
    {
      "inputs": [
        {
          "internalType": "uint256[]",
          "name": "ids",
          "type": "uint256[]"
        }
      ],
      "name": "getERC20TokenAddrByIds",
      "outputs": [
        {
          "internalType": "address[]",
          "name": "",
          "type": "address[]"
        }
      ],
      "stateMutability": "view",
      "type": "function",
      "constant": true
    },
    {
      "inputs": [
        {
          "internalType": "address",
          "name": "account",
          "type": "address"
        }
      ],
      "name": "getUserRegistERC20Ids",
      "outputs": [
        {
          "internalType": "uint256[]",
          "name": "",
          "type": "uint256[]"
        }
      ],
      "stateMutability": "view",
      "type": "function",
      "constant": true
    }
  ],
  "bytecode": "0x60806040523480156200001157600080fd5b5060405162001af238038062001af2833981016040819052620000349162000077565b600580546001600160a01b0319166001600160a01b0383161790556200006760006200006e602090811b6200103017901c565b50620000a9565b80546001019055565b6000602082840312156200008a57600080fd5b81516001600160a01b0381168114620000a257600080fd5b9392505050565b611a3980620000b96000396000f3fe608060405234801561001057600080fd5b50600436106100a45760003560e01c806317444a83146100a95780631f69565f146100be57806326370d05146100f35780634cdcfde61461011457806366d2a22c146101275780636e564e9b146101575780638294a87d1461016a578063890dfe011461017d578063b9a453291461019d578063c21bc9d1146101a5578063c6b4bdf0146101e6578063fa104992146101f9575b600080fd5b6100bc6100b736600461163a565b610219565b005b6100d16100cc3660046113d9565b6108e5565b604080519283526001600160a01b039091166020830152015b60405180910390f35b6101066101013660046113fb565b610968565b6040519081526020016100ea565b610106610122366004611610565b6109f8565b6100d16101353660046113d9565b600160208190526000918252604090912080549101546001600160a01b031682565b6100bc6101653660046113d9565b610a29565b6100bc61017836600461142e565b610af7565b61019061018b3660046113d9565b610e25565b6040516100ea919061180e565b610106610e91565b6101ce6101b3366004611790565b6003602052600090815260409020546001600160a01b031681565b6040516001600160a01b0390911681526020016100ea565b6101906101f43660046115c3565b610ead565b61020c610207366004611754565b610f5a565b6040516100ea91906117c1565b8651835114801561022b575085518351145b8015610238575084518351145b8015610245575083518351145b801561025d57508151835161025b906002611970565b145b8015610275575080518351610273906004611970565b145b61029a5760405162461bcd60e51b8152600401610291906118de565b60405180910390fd5b6000876000815181106102af576102af6119d7565b602002602001015190506000876000815181106102ce576102ce6119d7565b602002602001015190506102e28183610968565b6102ed906001611958565b87600081518110610300576103006119d7565b6020026020010151146103255760405162461bcd60e51b815260040161029190611846565b60008560008151811061033a5761033a6119d7565b6020026020010151905060005b86518110156108d857600160008c8381518110610366576103666119d7565b60200260200101516001600160a01b03166001600160a01b0316815260200190815260200160002060010160009054906101000a90046001600160a01b03166001600160a01b03166104b58c83815181106103c3576103c36119d7565b60200260200101518c84815181106103dd576103dd6119d7565b60200260200101518c85815181106103f7576103f76119d7565b60200260200101518c8681518110610411576104116119d7565b60200260200101518c878151811061042b5761042b6119d7565b60200260200101518c8860026104419190611970565b81518110610451576104516119d7565b60200260200101518c8960046104679190611970565b81518110610477576104776119d7565b60200260200101518d8a600461048d9190611970565b610498906001611958565b815181106104a8576104a86119d7565b6020026020010151611039565b6001600160a01b0316146104db5760405162461bcd60e51b8152600401610291906118ad565b8981815181106104ed576104ed6119d7565b60200260200101516001600160a01b03166105fe8c8381518110610513576105136119d7565b60200260200101518c848151811061052d5761052d6119d7565b60200260200101518c8581518110610547576105476119d7565b60200260200101518c8681518110610561576105616119d7565b60200260200101518c878151811061057b5761057b6119d7565b60200260200101518c8860026105919190611970565b61059c906001611958565b815181106105ac576105ac6119d7565b60200260200101518c8960046105c29190611970565b6105cd906002611958565b815181106105dd576105dd6119d7565b60200260200101518d8a60046105f39190611970565b610498906003611958565b6001600160a01b0316146106245760405162461bcd60e51b81526004016102919061187d565b801561089a578360405160200161063b91906117a9565b604051602081830303815290604052805190602001208b8281518110610663576106636119d7565b602002602001015160405160200161067b91906117a9565b604051602081830303815290604052805190602001201480156107025750826040516020016106aa91906117a9565b604051602081830303815290604052805190602001208a82815181106106d2576106d26119d7565b60200260200101516040516020016106ea91906117a9565b60405160208183030381529060405280519060200120145b156107ca578761071360018361198f565b81518110610723576107236119d7565b602002602001015160016107379190611958565b898281518110610749576107496119d7565b60200260200101511461079e5760405162461bcd60e51b815260206004820152601e60248201527f62617463684d696e743a206964206973206e6f7420636f6e74696e6f757300006044820152606401610291565b8681815181106107b0576107b06119d7565b6020026020010151826107c39190611958565b915061089a565b6107f984848a6107db60018661198f565b815181106107eb576107eb6119d7565b60200260200101518561116a565b8a818151811061080b5761080b6119d7565b60200260200101519350898181518110610827576108276119d7565b6020026020010151925061083b8385610968565b610846906001611958565b898281518110610858576108586119d7565b60200260200101511461087d5760405162461bcd60e51b815260040161029190611846565b86818151811061088f5761088f6119d7565b602002602001015191505b600187516108a8919061198f565b8114156108c6576108c684848a84815181106107eb576107eb6119d7565b806108d0816119a6565b915050610347565b5050505050505050505050565b6001600160a01b038116600090815260016020526040812054819061093e5760405162461bcd60e51b815260206004820152600f60248201526e151bdad95b881b9bdd08195e1a5cdd608a1b6044820152606401610291565b50506001600160a01b03908116600090815260016020819052604090912080549101549092911690565b6001600160a01b0381166000908152600160205260408120546109c25760405162461bcd60e51b81526020600482015260126024820152711d1bdad95b881b9bdd081c9959da5cdd195960721b6044820152606401610291565b506001600160a01b0391821660009081526004602090815260408083209390941682526001815283822054825291909152205490565b60026020528160005260406000208181548110610a1457600080fd5b90600052602060002001600091509150505481565b6001600160a01b03811660009081526001602052604090205415610a865760405162461bcd60e51b8152602060048201526014602482015273746f6b656e20616c72656164792065786973747360601b6044820152606401610291565b6000546001600160a01b03821660008181526001602081815260408084208681558084018054336001600160a01b0319918216811790925590865260028452828620805480870182559087528487200197909755548452600390915282208054909416909217909255815401905550565b85518751148015610b09575088518751145b8015610b16575087518751145b8015610b23575084518751145b8015610b30575083518751145b8015610b3d575082518751145b8015610b4a575081518751145b8015610b57575080518751145b610b735760405162461bcd60e51b8152600401610291906118de565b610b7d8a8c610968565b610b88906001611958565b89600081518110610b9b57610b9b6119d7565b602002602001015114610bf05760405162461bcd60e51b815260206004820181905260248201527f62617463684d696e744f6e653a207374617274206964206e6f74206d617463686044820152606401610291565b6000805b8851811015610de4576001600160a01b03808e16600090815260016020819052604090912001548c51911690610cbc908f908f908f9086908110610c3a57610c3a6119d7565b60200260200101518e8681518110610c5457610c546119d7565b60200260200101518e8781518110610c6e57610c6e6119d7565b60200260200101518e8881518110610c8857610c886119d7565b60200260200101518e8981518110610ca257610ca26119d7565b60200260200101518e8a815181106104a8576104a86119d7565b6001600160a01b031614610ce25760405162461bcd60e51b8152600401610291906118ad565b8b6001600160a01b0316610d858e8e8e8581518110610d0357610d036119d7565b60200260200101518e8681518110610d1d57610d1d6119d7565b60200260200101518e8781518110610d3757610d376119d7565b60200260200101518b8881518110610d5157610d516119d7565b60200260200101518b8981518110610d6b57610d6b6119d7565b60200260200101518b8a815181106104a8576104a86119d7565b6001600160a01b031614610dab5760405162461bcd60e51b81526004016102919061187d565b888181518110610dbd57610dbd6119d7565b602002602001015182610dd09190611958565b915080610ddc816119a6565b915050610bf4565b50610e178c8c8b60018d51610df9919061198f565b81518110610e0957610e096119d7565b60200260200101518461116a565b505050505050505050505050565b6001600160a01b038116600090815260026020908152604091829020805483518184028101840190945280845260609392830182828015610e8557602002820191906000526020600020905b815481526020019060010190808311610e71575b50505050509050919050565b60006001610e9e60005490565b610ea8919061198f565b905090565b6060600082516001600160401b03811115610eca57610eca6119ed565b604051908082528060200260200182016040528015610ef3578160200160208202803683370190505b50905060005b8351811015610f5257610f2585858381518110610f1857610f186119d7565b6020026020010151610968565b828281518110610f3757610f376119d7565b6020908102919091010152610f4b816119a6565b9050610ef9565b509392505050565b6060600082516001600160401b03811115610f7757610f776119ed565b604051908082528060200260200182016040528015610fa0578160200160208202803683370190505b50905060005b83518110156110295760036000858381518110610fc557610fc56119d7565b6020026020010151815260200190815260200160002060009054906101000a90046001600160a01b0316828281518110611001576110016119d7565b6001600160a01b0390921660209283029190910190910152611022816119a6565b9050610fa6565b5092915050565b80546001019055565b6001600160a01b03881660009081526001602081815260408084209092015482516001600160601b0319606092831b8116828501528c831b81166034830152918d901b9091166048820152605c81018a9052607c8101899052609c8082018990528351808303909101815260bc8201909352825192909101919091207b0ca2ba3432b932bab69029b4b3b732b21026b2b9b9b0b3b29d05199960211b60dc83015260f882018190529082906101180160408051601f1981840301815282825280516020918201206000845290830180835281905260ff8916918301919091526060820187905260808201869052915060019060a0016020604051602081039080840390855afa158015611150573d6000803e3d6000fd5b5050604051601f1901519c9b505050505050505050505050565b6001600160a01b0384166000908152600160205260409020546111cf5760405162461bcd60e51b815260206004820152601d60248201527f6d696e74546f6b656e3a20746f6b656e206e6f742072656769737465640000006044820152606401610291565b6040516340c10f1960e01b81526001600160a01b038481166004830152602482018390528516906340c10f1990604401600060405180830381600087803b15801561121957600080fd5b505af115801561122d573d6000803e3d6000fd5b5050506001600160a01b03938416600090815260046020908152604080832097909616825260018152858220548252959095525050912055565b80356001600160a01b038116811461127e57600080fd5b919050565b600082601f83011261129457600080fd5b813560206112a96112a483611935565b611905565b80838252828201915082860187848660051b89010111156112c957600080fd5b60005b858110156112ef576112dd82611267565b845292840192908401906001016112cc565b5090979650505050505050565b600082601f83011261130d57600080fd5b8135602061131d6112a483611935565b80838252828201915082860187848660051b890101111561133d57600080fd5b60005b858110156112ef57813584529284019290840190600101611340565b600082601f83011261136d57600080fd5b8135602061137d6112a483611935565b80838252828201915082860187848660051b890101111561139d57600080fd5b6000805b868110156113cb57823560ff811681146113b9578283fd5b855293850193918501916001016113a1565b509198975050505050505050565b6000602082840312156113eb57600080fd5b6113f482611267565b9392505050565b6000806040838503121561140e57600080fd5b61141783611267565b915061142560208401611267565b90509250929050565b60008060008060008060008060008060006101608c8e03121561145057600080fd5b6114598c611267565b9a5061146760208d01611267565b99506001600160401b0360408d013581101561148257600080fd5b6114928e60408f01358f016112fc565b99508060608e013511156114a557600080fd5b6114b58e60608f01358f016112fc565b98508060808e013511156114c857600080fd5b6114d88e60808f01358f016112fc565b97508060a08e013511156114eb57600080fd5b6114fb8e60a08f01358f0161135c565b96508060c08e0135111561150e57600080fd5b61151e8e60c08f01358f016112fc565b95508060e08e0135111561153157600080fd5b6115418e60e08f01358f016112fc565b9450806101008e0135111561155557600080fd5b6115668e6101008f01358f0161135c565b9350806101208e0135111561157a57600080fd5b61158b8e6101208f01358f016112fc565b9250806101408e0135111561159f57600080fd5b506115b18d6101408e01358e016112fc565b90509295989b509295989b9093969950565b600080604083850312156115d657600080fd5b6115df83611267565b915060208301356001600160401b038111156115fa57600080fd5b61160685828601611283565b9150509250929050565b6000806040838503121561162357600080fd5b61162c83611267565b946020939093013593505050565b600080600080600080600060e0888a03121561165557600080fd5b87356001600160401b038082111561166c57600080fd5b6116788b838c01611283565b985060208a013591508082111561168e57600080fd5b61169a8b838c01611283565b975060408a01359150808211156116b057600080fd5b6116bc8b838c016112fc565b965060608a01359150808211156116d257600080fd5b6116de8b838c016112fc565b955060808a01359150808211156116f457600080fd5b6117008b838c016112fc565b945060a08a013591508082111561171657600080fd5b6117228b838c0161135c565b935060c08a013591508082111561173857600080fd5b506117458a828b016112fc565b91505092959891949750929550565b60006020828403121561176657600080fd5b81356001600160401b0381111561177c57600080fd5b611788848285016112fc565b949350505050565b6000602082840312156117a257600080fd5b5035919050565b60609190911b6001600160601b031916815260140190565b6020808252825182820181905260009190848201906040850190845b818110156118025783516001600160a01b0316835292840192918401916001016117dd565b50909695505050505050565b6020808252825182820181905260009190848201906040850190845b818110156118025783518352928401929184019160010161182a565b6020808252601d908201527f62617463684d696e743a207374617274206964206e6f74206d61746368000000604082015260600190565b60208082526016908201527524b73b30b634b21039b4b3b730ba3ab932903ab9b2b960511b604082015260600190565b60208082526017908201527624b73b30b634b21039b4b3b730ba3ab9329030b236b4b760491b604082015260600190565b6020808252600d908201526c125b9d985b1a59081a5b9c1d5d609a1b604082015260600190565b604051601f8201601f191681016001600160401b038111828210171561192d5761192d6119ed565b604052919050565b60006001600160401b0382111561194e5761194e6119ed565b5060051b60200190565b6000821982111561196b5761196b6119c1565b500190565b600081600019048311821515161561198a5761198a6119c1565b500290565b6000828210156119a1576119a16119c1565b500390565b60006000198214156119ba576119ba6119c1565b5060010190565b634e487b7160e01b600052601160045260246000fd5b634e487b7160e01b600052603260045260246000fd5b634e487b7160e01b600052604160045260246000fdfea2646970667358221220c30c518e11811d3dd12e7dc9aef8bab6de6e1171ef8d851ff913095306463f8e64736f6c63430008070033",
  "immutableReferences": {},
  "source": "// SPDX-License-Identifier: MIT\r\npragma solidity ^0.8.0;\r\n\r\nimport \"@openzeppelin/contracts/utils/Counters.sol\";\r\n\r\ninterface ERC20Mintable\r\n{\r\n    function mint(address to, uint256 amount) external;\r\n}\r\n\r\ncontract CiviaERC20Check {\r\n    using Counters for Counters.Counter;\r\n\r\n    Counters.Counter private _id;\r\n    struct ContractInfo {\r\n        uint256 id;\r\n        address admin;\r\n    }\r\n    mapping (address => ContractInfo) public erc20Info;\r\n    mapping (address => uint256[]) public userRegisteTokens;\r\n    mapping (uint256 => address) public tokenIdAddrMaps;\r\n\r\n    mapping (address => mapping (uint256 => uint256)) private userOwnMaps;  // account => erc20id => ownId\r\n\r\n    address private _admin;\r\n    constructor(address admin) {\r\n        _admin = admin;\r\n        _id.increment();\r\n    }\r\n\r\n    function registERC20(address addr) external {\r\n        require(erc20Info[addr].id == 0, \"token already exists\");\r\n        \r\n        erc20Info[addr].id = _id.current();\r\n        erc20Info[addr].admin = msg.sender;\r\n\r\n        userRegisteTokens[msg.sender].push(erc20Info[addr].id);\r\n        tokenIdAddrMaps[erc20Info[addr].id] = addr;\r\n\r\n        _id.increment();\r\n    }\r\n\r\n    function getOwnedTokenCurrentId(address account, address tokenAddr) public view returns (uint256) {\r\n        require(erc20Info[tokenAddr].id > 0, \"token not registed\");\r\n        return userOwnMaps[account][erc20Info[tokenAddr].id];\r\n    }\r\n    function getOwnedTokensCurrentIds(address account, address[] memory tokenAddrs) public view returns (uint256[] memory) {\r\n        uint256[] memory ids = new uint256[](tokenAddrs.length);\r\n        for (uint256 i = 0; i < tokenAddrs.length; ++i) {\r\n            ids[i] = getOwnedTokenCurrentId(account, tokenAddrs[i]);\r\n        }\r\n        return ids;\r\n    }\r\n\r\n    function verifySign(address tokenAddr, address account, uint256 beginId, uint256 endId, uint256 amount, uint8 v, bytes32 r, bytes32 s) internal view returns(address) {\r\n        bytes32 messageHash = keccak256(\r\n            abi.encodePacked(\r\n                erc20Info[tokenAddr].admin,\r\n                account,\r\n                tokenAddr,\r\n                beginId,\r\n                endId,\r\n                amount\r\n            )\r\n        );\r\n        bytes32 prefixedHash = keccak256(abi.encodePacked(\"\\x19Ethereum Signed Message:\\n32\", messageHash));\r\n        return ecrecover(prefixedHash, v, r, s);\r\n    }\r\n    function mintToken(address tokenAddr, address account, uint256 endId, uint256 mintAmount) internal {\r\n        require(erc20Info[tokenAddr].id > 0, \"mintToken: token not registed\");\r\n\r\n        ERC20Mintable(tokenAddr).mint(account, mintAmount);\r\n        userOwnMaps[account][erc20Info[tokenAddr].id] = endId;\r\n    }\r\n    function batchMintOne(address tokenAddr, address account, uint256[] memory beginIds, uint256[] memory endIds, uint256[] memory amounts, uint8[] memory v1, bytes32[] memory r1, bytes32[] memory s1, uint8[] memory v2, bytes32[] memory r2, bytes32[] memory s2) public {\r\n        require(amounts.length == v1.length && amounts.length == beginIds.length && amounts.length == endIds.length && amounts.length == r1.length && amounts.length == s1.length && amounts.length == v2.length && amounts.length == r2.length && amounts.length == s2.length, \"Invalid input\");\r\n\r\n        require(beginIds[0] == (getOwnedTokenCurrentId(account, tokenAddr) + 1), \"batchMintOne: start id not match\");\r\n\r\n        uint256 mintAmount = 0;\r\n        for (uint256 i = 0; i < amounts.length; i++) {\r\n            require(verifySign(tokenAddr, account, beginIds[i], endIds[i], amounts[i], v1[i], r1[i], s1[i])==erc20Info[tokenAddr].admin, \"Invalid signature admin\");\r\n            require(verifySign(tokenAddr, account, beginIds[i], endIds[i], amounts[i], v2[i], r2[i], s2[i])==account, \"Invalid signature user\");\r\n            mintAmount += amounts[i];\r\n        }\r\n\r\n        mintToken(tokenAddr, account, endIds[endIds.length-1], mintAmount);\r\n    }\r\n    function batchMint(address[] memory tokenAddrs, address[] memory accounts, uint256[] memory beginIds, uint256[] memory endIds, uint256[] memory amounts, uint8[] memory v, bytes32[] memory r_s) public {\r\n        require(amounts.length == tokenAddrs.length && amounts.length == accounts.length && amounts.length == beginIds.length && amounts.length == endIds.length && amounts.length*2 == v.length && amounts.length*4 == r_s.length, \"Invalid input\");\r\n\r\n        address currentToken = tokenAddrs[0];\r\n        address currentUser = accounts[0];\r\n\r\n        require(beginIds[0] == (getOwnedTokenCurrentId(currentUser, currentToken) + 1), \"batchMint: start id not match\");\r\n        uint256 mintAmount = amounts[0];\r\n\r\n        for (uint256 i = 0; i < amounts.length; i++) {\r\n            require(verifySign(tokenAddrs[i], accounts[i], beginIds[i], endIds[i], amounts[i], v[i*2], r_s[i*4], r_s[i*4+1])==erc20Info[tokenAddrs[i]].admin, \"Invalid signature admin\");\r\n            require(verifySign(tokenAddrs[i], accounts[i], beginIds[i], endIds[i], amounts[i], v[i*2+1], r_s[i*4+2], r_s[i*4+3])==accounts[i], \"Invalid signature user\");\r\n            if (i > 0) {\r\n                if (keccak256(abi.encodePacked(tokenAddrs[i]))==keccak256(abi.encodePacked(currentToken)) && keccak256(abi.encodePacked(accounts[i]))==keccak256(abi.encodePacked(currentUser))) {\r\n                    require(beginIds[i] == (endIds[i-1] + 1), \"batchMint: id is not continous\");\r\n                    mintAmount += amounts[i];\r\n                } else {\r\n                    mintToken(currentToken, currentUser, endIds[i-1], mintAmount);\r\n\r\n                    currentToken = tokenAddrs[i];\r\n                    currentUser = accounts[i];\r\n                    require(beginIds[i] == (getOwnedTokenCurrentId(currentUser, currentToken) + 1), \"batchMint: start id not match\");\r\n                    mintAmount = amounts[i];\r\n                }\r\n            }\r\n            if (i == amounts.length - 1) {\r\n                mintToken(currentToken, currentUser, endIds[i], mintAmount);\r\n            }\r\n        }\r\n    }\r\n\r\n    // total regist ERC20 counts\r\n    function getHandledCount() public view returns (uint256) {\r\n        return (_id.current() - 1);\r\n    }\r\n    function getTokenInfo(address addr) public view returns (uint256, address) {\r\n        require(erc20Info[addr].id > 0, \"Token not exist\");\r\n        return (erc20Info[addr].id, erc20Info[addr].admin);\r\n    }\r\n    function getERC20TokenAddrByIds(uint256[] memory ids) public view returns (address[] memory) {\r\n        address[] memory tokenAddrs = new address[](ids.length);\r\n        for (uint256 i = 0; i < ids.length; ++i) {\r\n            tokenAddrs[i] = tokenIdAddrMaps[ids[i]];\r\n        }\r\n        return tokenAddrs;\r\n    }\r\n    function getUserRegistERC20Ids(address account) view public returns(uint256[] memory) {\r\n        return userRegisteTokens[account];\r\n    }\r\n    \r\n}",
  "sourcePath": "C:\\dev\\NBWallet\\code\\contracts\\ethernum\\contracts\\CiviaERC20Check.sol",
  "compiler": {
    "name": "solc",
    "version": "0.8.7+commit.e28d00a7.Emscripten.clang"
  },
  "schemaVersion": "3.4.4",
  "updatedAt": "2023-05-22T08:57:22.688Z",
  "networkType": "ethereum",
  "devdoc": {
    "kind": "dev",
    "methods": {},
    "version": 1
  },
  "userdoc": {
    "kind": "user",
    "methods": {},
    "version": 1
  }
}